:040000000201B9320E
:01000B0032C2
:0100130032BA
:01001B0032B2
:0100230032AA
:01002B0032A2
:0300330002034085
:01003B003292
:01004300328A
:01004B003282
:01005300327A
:01005B003272
:01006300326A
:03006B000203434A
:03007300020AE39B
:03007B00020AF97D
:0300830002038BEA
:03008B0002035B12
:03009300020373F2
:03009B00020AFA5C
:0300A300020AFB53
:0300AB00020AFC4A
:0300B300020AFD41
:0300BB00020AFE38
:0300C300020AFF2F
:0300CB00020B44E1
:0300D300020B45D8
:0300DB00020B46CF
:0300E300020B47C6
:0300EB00020B48BD
:0300F300020B49B4
:0300FB00020B4AAB
:03010300020B4BA1
:03010B00020B4C98
:03011300020B4D8F
:03011B00020B4E86
:03012300020B4F7D
:03012B00020B5074
:03013300020B516B
:03013B00020B5262
:03014300020B5359
:03014B00020B5450
:03015300020B5547
:03015B00020B563E
:03016300020B5735
:03016B00020B582C
:03017300020B5923
:03017B00020B5A1A
:03018300020B5B11
:03018B00020B5C08
:03019300020B5DFF
:03019B00020B5EF6
:0301A300020B5FED
:0301AB00020B60E4
:0301B300020B61DB
:08021200C200C201C202C203D6
:03022F000201B613
:0301B60002023210
:2002320090E600E054E74410F0E500D2E890E668E0FF43070890E668EFF090E65CE0FF4378
:20025200070190E65CEFF0E0FF43071090E65CEFF0E0FF43072090E65CEFF0E0FF430708BE
:2002720090E65CEFF0D2DD1203A3D2AF90E680E020E11690E680E043E00AF09005DC12135D
:20029200E590E680E053E0F7F01000028003120B621001028006758201120EC1100202805D
:2002B20006758200120EC110030302033A90E682E043E0C0F090E6817401F0AE877F0043FB
:2002D20006018E8700000000000000E50F701C90E682E030E60790E682E020E0D090E682DB
:2002F200E030E70790E682E020E1C290E682E030E60790E682E020E00E90E682E030E72861
:2003120090E682E030E1219000051213E590E680E0FF43070190E680EFF090000F1213E584
:2003320090E680E053E0FEF012046A02029BC2DC32C0E0C082C083D2005391EF90E65D74B4
:2003520001F0D083D082D0E032C0E0C082C083D2025391EF90E65D7410F0D083D082D0E0AB
:2003720032C0E0C082C083D2015391EF90E65D7420F0D083D082D0E032C0E0C082C083D299
:11039200035391EF90E65D7408F0D083D082D0E032BE
:03021A0075090063
:2003A30090E601E0FF7E0043074090E601EFF00000000090E610E053E07FF00000000090EE
:2003C300E611E053E07FF00000000090E613E053E07FF00000000090E614E053E07FF0008A
:2003E30000000090E615E053E07FF00000000090E61274E0F090E65CE0FF43070290E65C52
:20040300EFF0E4F50AF50B7E017F0090F000E4F090F001F090E685E090F002F090E684E02D
:2004230090F003F090E686E090F004F07C057D008C8274F02DF5838E03EBF00CBC00010D9F
:20044300C3ED6480948440E890E6907402F090E691E4F00EBE00010FC3EE9405EF648094F1
:200463008040A8750F012290E680E020E7030205BBE50924F9500122E50975F003A49004BC
:20048300857302049A0205630204D9020524020563020524020570E5AA30E10122AF0A9035
:2004A300F000EFF0AF0B90F001EFF090E685E090F002F090E684E090F003F090E686E0904A
:2004C300F004F090E6907402F090E691E4F0050AB50A02050B22E5AA20E139AF0A90F000EA
:2004E300EFF0AF0B90F001EFF090E685E090F002F090E684E090F003F090E686E0FF90F00B
:2005030004F090E6907402F090E691E4F0050AB50A02050BE5AA30E4012290E6997480F004
:2005230022E5AA30E10122AF0A90F000EFF0AF0B90F001EFF090E685E090F002F090E6845A
:20054300E090F003F090E686E090F004F090E6907404F090E691E4F0050AB50A02050B22AA
:20056300E5AA30E0012290E6917480F022E5AA20E139AF0A90F000EFF0AF0B90F001EFF0AE
:2005830090E685E090F002F090E684E090F003F090E686E0FF90F004F090E6907404F09071
:2005A300E691E4F0050AB50A02050BE5AA30E4012290E6997480F022E50924FC500122E5CC
:2005C3000975F003A49005CC730205D8020619020625020666E5AA30E10122AF0A90F00098
:2005E300EFF0AF0B90F001EFF090E685E090F002F090E684E090F003F090E686E0FF90F00A
:2006030004F090E690E4F090E6917440F0050AE4B50A5B050B22E5AA20E05390E691748042
:20062300F022E5AA20E147AF0A90F000EFF0AF0B90F001EFF090E685E090F002F090E68455
:20064300E090F003F090E686E0FF90F004F090E6907403F090E69174FFF0050AE4B50A0E5E
:20066300050B22E5AA20E00690E6917480F022858208758201228508822275820022AD146F
:20068300AE15AF168D828E838FF0E5091213CA75820122850C0990E680E020E70302094E66
:2006A300E50924F95003020ABDE50975F003A49006B6730206CB02073A0207A7020828025D
:2006C30008710208A70208F090E61274E0F00000000090E610E053E07FF00000000090E6A9
:2006E30011E053E07FF00000000090E613E053E07FF00000000090E614E053E07FF000004D
:20070300000090E615E053E07FF00000000090E6047480F00000000090E6047402F000008B
:20072300000090E604E4F00000000090E6837412F07432F0020ABD90E61274A0F00000000E
:200743000090E610E053E07FF00000000090E611E053E07FF00000000090E613E053E07F6A
:20076300F00000000090E614E053E07FF00000000090E615E053E07FF00000000090E69166
:200783007480F00000000090E6917480F00000000090E6917480F00000000090E6917480A1
:2007A300F0020ABD90E61274E2F00000000090E61474A2F00000000090E610E053E07FF017
:2007C3000000000090E611E053E07FF00000000090E613E053E07FF00000000090E615E097
:2007E30053E07FF00000000090E6047480F00000000090E6047402F00000000090E604E4B8
:20080300F00000000090E6837412F07432F090E6997480F00000000090E6997480F00000FA
:200823000000020ABD90E61274D8F00000000090E615E4F090E614F090E613F090E611F05F
:2008430090E610F00000000090E6047480F00000000090E6047402F00000000090E604E483
:20086300F00000000090E6407403F0020ABD90E615E4F090E614F090E613F090E611F09046
:20088300E610F00000000090E6127498F00000000090E6917480F00000000090E691748005
:2008A300F0020ABD90E61274D8F00000000090E615E4F090E614F090E613F090E611F0905F
:2008C300E610F00000000090E6047480F00000000090E6047402F00000000090E604E4F0A3
:2008E3000000000090E6407401F0020ABD90E61274DAF00000000090E614749AF0000000C3
:200903000090E615E4F090E613F090E611F090E610F00000000090E6047480F000000000B1
:2009230090E6047402F00000000090E604E4F00000000090E6407401F090E69903F0000069
:20094300000090E6997480F0020ABDE50924FC5003020ABDE50975F003A49009617302093C
:200963006D0209DC020A48020A8A90E61274E0F00000000090E610E053E07FF00000000062
:2009830090E611E053E07FF00000000090E613E053E07FF00000000090E614E053E07FF034
:2009A3000000000090E615E053E07FF00000000090E6047480F00000000090E6047402F0E9
:2009C3000000000090E604E4F00000000090E6837412F07432F0020ABD90E61274A0F0006C
:2009E30000000090E610E053E07FF00000000090E611E053E07FF00000000090E613E05327
:200A0300E07FF00000000090E614E053E07FF00000000090E615E053E07FF00000000090DB
:200A2300E6917480F00000000090E6917480F00000000090E6917480F00000000090E6917B
:200A43007480F0807590E61274D8F00000000090E615E4F090E614F090E613F090E611F02D
:200A630090E610F00000000090E6047480F00000000090E6047402F00000000090E604E461
:200A8300F000000000803390E615E4F090E614F090E613F090E611F090E610F00000000071
:200AA30090E6127498F00000000090E6917480F00000000090E6917480F0E5092401FEE4E4
:200AC3003432FF8E398F3A753B007535017536007537017538007582211212D17582012297
:200AE300C0E0C082C0835391EF90E65D7402F0D083D082D0E032323232323232C0E0C0822D
:200B0300C083C0D07401B5090280157402B50902801B7404B5090280077406B5091A800DC6
:200B2300E5AA20E01390E6917480F0800BE5AA20E40690E6997480F0D0D0D083D082D0E019
:1F0B43003232323232323232323232323232323232323232323232323232323232323285
:10145A00C0F9A4B0999282F880988883C6A1868E32
:202E000012010002FFFFFF40B40403100000000200010A060002FFFFFF40010009028700B0
:202E200001010080320904000001FFFFFF00070582020002000904000101FFFFFF00070529
:202E400002020002000904000202FFFFFF00070582020002000705060200020009040003A6
:202E600001FFFFFF00070582010014010904000401FFFFFF0007050201001401090400056B
:202E800001FFFFFF00070582010004010904000602FFFFFF000705820100040107050601E7
:032EA0000004012A
:202EA4000902490001010080320904000001FF000000070582024000010904000101FF001A
:202EC4000000070502024000010904000201FF00000007058201FF03010904000301FF00EC
:092EE400000007050201FF0301D3
:202EEE0004030904100343007900700072006500730073001403430079002D0073007400CD
:1A2F0E007200650061006D001003420075006C006B002D0049004E0000009F
:0601E800E478FFF6D8FDEB
:12021D00750E00750F007510A475112E75121C75132E92
:200B620090E6B9E0FF24F45003020C86EF240A83F582EF241083F583E47394B086CC868638
:200B8200E886EE0527610B0B0C0B0C0C0B0C0B0C0C0C120D08E5826003020CA290E6A0E048
:200BA200FF7E0043070190E6A0EFF0020CA2120D9CE5826003020CA290E6A0E0FF7E0043DB
:200BC200070190E6A0EFF0020CA2120E20E5826003020CA290E6A0E0FF7E0043070190E678
:200BE200A0EFF0020CA2120EEC020CA2120679AF8290E740EFF090E68AE4F090E68B04F0E7
:200C0200020CA290E6BAE0F582120672E5826003020CA290E6A0E0FF7E0043070190E6A0C3
:200C2200EFF0020CA290E6BCE0FF75140D7515007516408F82120681E582701190E6A0E09F
:200C4200FF7E0043070190E6A0EFF0805390E740E50DF090E68AE4F090E68B04F08041904F
:200C6200E6BCE0FF90E6BAE0F50C8F82120696E582702D90E6A0E0FF7E0043070190E6A049
:200C8200EFF0801C90E6B9E0F58212067DE582700F90E6A0E0FF7E0043070190E6A0EFF023
:200CA20090E6A0E0FF43078090E6A0EFF022AF82747F5FFE24F75003020D04EE240A83F5C6
:200CC20082EE240D83F583E473DDE1F404F804FC04000C0C0C0D0C0D0C0D0D90E6A022EFD6
:200CE20030E7067EA27FE680047EA17FE68E828F832290E6A32290E6A42290E6A52290E6DA
:200D0200A6229000002290E6B8E0FFBF80028022BF81028008BF82028037020D9490E74049
:200D2200E4F090E741F090E68AF090E68B7402F08064E50F25E0FFE50E420790E740EFF030
:200D420090E741E4F090E68AF090E68B7402F0804590E6BCE0F582120CB0AE82AF838E049E
:200D62008F05EE4F7003F582228C828D83E0FC30E0067E017F0080047E007F0090E740EE60
:200D8200F090E741E4F090E68AF090E68B7402F08004758200227582012290E6B8E0FF605A
:200DA20005BF026D801190E6BAE0FFBF0105750F0080677582002290E6BAE0705090E6BC13
:200DC200E0F582120CB0AE82AF83E0FD5305FE8E828F83EDF090E6BCE0FF53070F90E6BCAC
:200DE200E0FE530680E423CEC423541F6ECE541FCE6ECE30E40244E0FD90E683EE2FF0E035
:200E0200FF7E0043072090E683EFF0800D7582002290E6B9E0F58202067D7582012290E6D0
:200E2200B8E0FF6008BF02028020020EB490E6BAE0FFBF0203020EBD90E6BAE0FFBF010615
:200E4200750F01020EBD7582002290E6BAE0705E90E6BCE0F582120CB0AE82AF83EE4F70E1
:200E620003F582228E828F83E0FD7C004305018E828F83EDF090E6BCE0FF53070F90E6BC65
:200E8200E0FE530680E4C423CEC423541F6ECE541FCE6ECE30E40244E0FD90E683EE2FF0B0
:200EA200E0FF7E0043072090E683EFF0800D7582002290E6B9E0F58202067D75820122AF17
:200EC200827E0110AF027E00EF600E75101C75112E7512A475132E800C7510A475112E755F
:200EE200121C75132EEE1392AF2290E6BBE0FFBF01028019BF02028024BF0302802CBF06A1
:200F020003020FA6BF0703020FB6020FC37E007F2E90E6B3EFF090E6B47400F02290E6B3A5
:200F2200E511F090E6B4E510F0227DEE7E2E7F8090E6BAE0F5147B008B020BEAB514028021
:200F4200428D008E018F028D828E838FF012143A28F8E439F9880589068A0774012DF9E43F
:200F62003EFA8F0489828A838CF012143AF9B9030280067D007E007F00ED4E6006C3E5149C
:200F82009B50B5ED4E600F8D038E0490E6B3ECF090E6B4EDF02290E6A0E0FF43070190E6FF
:200FA200A0EFF0227E127F2E90E6B3EFF090E6B47412F02290E6B3E513F090E6B4E512F065
:0F0FC2002290E6A0E0FF43070190E6A0EFF022A7
:2001C6007910E94400601B7A0190145A7801759232E493F2A308B800020592D9F4DAF2754A
:0201E60092FF86
:200FD10085822BE5262521FDE5273522FE752C02903200E4F0903200E06004758200229037
:200FF100E678E0FB7A0043038090E678EBF0E030E21090000AC006C0051213E5D005D006C2
:2010110080D3E52B25E0FB90E679F090E678E020E006903200E060F3903200E060047582B7
:20103100002290E678E020E2AC90E678E020E14090E678E0FB43034090E678EBF090E678EC
:20105100E030E606903200E060F3903200E0600475820022E52C14FB8B2C7003F5822290FC
:20107100000AC006C0051213E5D005D006020FE67A007B00C3EA9DEB9E400302111BC3EA38
:201091009521EB95225016EA2523F8EB3524F9AC25888289838CF012143AFC801DEAC3957C
:2010B10021F8EB9522F9E82528F8E93529F9AF2A888289838FF012143AFC90E679ECF00A5F
:2010D100BA00010B90E678E020E006903200E060F3903200E060047582002290E678E03053
:2010F100E203020FE690E678E020E18890E678E0FF43074090E678EFF090E678E030E6069E
:20111100903200E060F37582002290E678E0FF43074090E678EFF090E678E030E6069032E0
:2011310000E060F3903200E060047582002275820122858232903200E4F004B52D0814B5AC
:201151002E0474018001E4FE903200E06004758200227C007D0090E678E0FB43038090E657
:2011710078EBF0E030E20C90000AC0061213E5D00680D5E53225E0FB3395E0FA43030190E8
:20119100E679EBF090E678E020E006903200E060F3903200E060047582002290E678E0202E
:2011B100E2A690E678E020E11E90E678E0FB43034090E678EBF090E678E030E606903200E5
:2011D100E060F375820022EE600F90E678E0FB7A0043032090E678EBF090E679E0E4F53308
:2011F100F53474012533F8E43534F9C3E8952DE9952E506C90E678E020E006903200E060FF
:20121100F3903200E060047582002290E678E030E20302115974022533F8E43534F9E8B5B3
:201231002D13E9B52E0F90E678E0F8790043002090E678E8F0A833A9340533E4B533020557
:2012510034AC33AD34E8252FF8E93530F9AF3190E679E0FB888289838FF01213CA0211F3DA
:2012710090E678E020E006903200E060F3903200E060047582002290E678E030E20302117F
:201291005990E678E0FF43074090E678EFF0EC252FFCED3530FDAF3190E679E08C828D8368
:2012B1008FF01213CA90E678E030E606903200E060F3903200E06004758200227582012297
:2012D10085823CE4F540F541AB35AC36C3E5409537E541953840030213627A0090E678E000
:2012F10030E4067A018C078F3DEA04FFEA243DF98B02A702EF04FAEF243DF9AE40AF410569
:2013110040E4B540020541EE2539FEEF353AFFAD3B8E828F838DF012143AF78A2175220094
:2013310075233D752400752540E4F526F527F528F529F52A853C82C004C003120FD1E582BC
:20135100D003D0047003F582220BBB00010C0212DD75820122AF827E0090E678E030E40654
:201371007E01AD438D49EE04FDEE2449F9AE42A7068D21752200752349752400752540E4BA
:20139100F526F527F528F529F52A8F82C007120FD1E582D0077003F5822285442D85452EA9
:1913B10085462F8547308548318F82121143E5827003F58222758201222B
:1B13CA0020F71130F6138883A88220F509F6A8837583002280FEF280F5F02222
:0300430002300088
:2030000002034300020AE300020AF90002038B0002035B0002037300020AFA00020B5300A6
:20302000020AFB00020AFC00020AFD00020AFE00020AFF00020B4400020B4500020B46006D
:20304000020B4700020B5300020B4800020B4900020B4A00020B4B00020B4C00020B4D00AF
:20306000020B4E00020B5300020B5300020B5300020B4F00020B5000020B5100020B52005F
:20308000020B5400020B5500020B5600020B5700020B5800020B5900020B5A00020B5B000C
:1830A000020B5C00020B5D00020B5E00020B5F00020B6000020B610093
:2001EE007800E84400600A7900759232E4F309D8FC7801E84400600C7901903200E4F0A3B9
:04020E00D8FCD9FA45
:2013E500AE82AF8390E600E05418C423541F70057CB1FD801C90E600E05418C423541FFB18
:20140500BB01067A617B0180047AC27B028A048B058C148D15151474FFB514021515E51487
:15142500451570F1EE24FFFAEF34FFFB8A068B07EA4B70DD2209
:0D01B90075814A121456E58260030201B6FA
:1C143A0020F71430F6148883A88220F507E6A88375830022E280F7E49322E022C1
:041456007582002279
:00000001FF
